{
  "_format": "hh-sol-artifact-1",
  "contractName": "Procedure",
  "sourceName": "contracts/SUSRecord.sol",
  "abi": [
    {
      "inputs": [],
      "stateMutability": "nonpayable",
      "type": "constructor"
    },
    {
      "anonymous": false,
      "inputs": [
        {
          "indexed": true,
          "internalType": "address",
          "name": "owner",
          "type": "address"
        },
        {
          "indexed": true,
          "internalType": "address",
          "name": "approved",
          "type": "address"
        },
        {
          "indexed": true,
          "internalType": "uint256",
          "name": "tokenId",
          "type": "uint256"
        }
      ],
      "name": "Approval",
      "type": "event"
    },
    {
      "anonymous": false,
      "inputs": [
        {
          "indexed": true,
          "internalType": "address",
          "name": "owner",
          "type": "address"
        },
        {
          "indexed": true,
          "internalType": "address",
          "name": "operator",
          "type": "address"
        },
        {
          "indexed": false,
          "internalType": "bool",
          "name": "approved",
          "type": "bool"
        }
      ],
      "name": "ApprovalForAll",
      "type": "event"
    },
    {
      "anonymous": false,
      "inputs": [
        {
          "indexed": true,
          "internalType": "address",
          "name": "previousOwner",
          "type": "address"
        },
        {
          "indexed": true,
          "internalType": "address",
          "name": "newOwner",
          "type": "address"
        }
      ],
      "name": "OwnershipTransferred",
      "type": "event"
    },
    {
      "anonymous": false,
      "inputs": [
        {
          "indexed": true,
          "internalType": "address",
          "name": "from",
          "type": "address"
        },
        {
          "indexed": true,
          "internalType": "address",
          "name": "to",
          "type": "address"
        },
        {
          "indexed": true,
          "internalType": "uint256",
          "name": "tokenId",
          "type": "uint256"
        }
      ],
      "name": "Transfer",
      "type": "event"
    },
    {
      "inputs": [
        {
          "internalType": "address",
          "name": "to",
          "type": "address"
        },
        {
          "internalType": "uint256",
          "name": "tokenId",
          "type": "uint256"
        }
      ],
      "name": "approve",
      "outputs": [],
      "stateMutability": "nonpayable",
      "type": "function"
    },
    {
      "inputs": [
        {
          "internalType": "address",
          "name": "owner",
          "type": "address"
        }
      ],
      "name": "balanceOf",
      "outputs": [
        {
          "internalType": "uint256",
          "name": "",
          "type": "uint256"
        }
      ],
      "stateMutability": "view",
      "type": "function"
    },
    {
      "inputs": [],
      "name": "burnNFT",
      "outputs": [],
      "stateMutability": "nonpayable",
      "type": "function"
    },
    {
      "inputs": [
        {
          "internalType": "uint256",
          "name": "tokenId",
          "type": "uint256"
        }
      ],
      "name": "getApproved",
      "outputs": [
        {
          "internalType": "address",
          "name": "",
          "type": "address"
        }
      ],
      "stateMutability": "view",
      "type": "function"
    },
    {
      "inputs": [
        {
          "internalType": "address",
          "name": "owner",
          "type": "address"
        },
        {
          "internalType": "address",
          "name": "operator",
          "type": "address"
        }
      ],
      "name": "isApprovedForAll",
      "outputs": [
        {
          "internalType": "bool",
          "name": "",
          "type": "bool"
        }
      ],
      "stateMutability": "view",
      "type": "function"
    },
    {
      "inputs": [
        {
          "internalType": "address",
          "name": "recipient",
          "type": "address"
        },
        {
          "internalType": "string",
          "name": "tokenURI",
          "type": "string"
        }
      ],
      "name": "mintNFT",
      "outputs": [
        {
          "internalType": "uint256",
          "name": "",
          "type": "uint256"
        }
      ],
      "stateMutability": "nonpayable",
      "type": "function"
    },
    {
      "inputs": [],
      "name": "name",
      "outputs": [
        {
          "internalType": "string",
          "name": "",
          "type": "string"
        }
      ],
      "stateMutability": "view",
      "type": "function"
    },
    {
      "inputs": [],
      "name": "owner",
      "outputs": [
        {
          "internalType": "address",
          "name": "",
          "type": "address"
        }
      ],
      "stateMutability": "view",
      "type": "function"
    },
    {
      "inputs": [
        {
          "internalType": "uint256",
          "name": "tokenId",
          "type": "uint256"
        }
      ],
      "name": "ownerOf",
      "outputs": [
        {
          "internalType": "address",
          "name": "",
          "type": "address"
        }
      ],
      "stateMutability": "view",
      "type": "function"
    },
    {
      "inputs": [],
      "name": "renounceOwnership",
      "outputs": [],
      "stateMutability": "nonpayable",
      "type": "function"
    },
    {
      "inputs": [
        {
          "internalType": "address",
          "name": "from",
          "type": "address"
        },
        {
          "internalType": "address",
          "name": "to",
          "type": "address"
        },
        {
          "internalType": "uint256",
          "name": "tokenId",
          "type": "uint256"
        }
      ],
      "name": "safeTransferFrom",
      "outputs": [],
      "stateMutability": "nonpayable",
      "type": "function"
    },
    {
      "inputs": [
        {
          "internalType": "address",
          "name": "from",
          "type": "address"
        },
        {
          "internalType": "address",
          "name": "to",
          "type": "address"
        },
        {
          "internalType": "uint256",
          "name": "tokenId",
          "type": "uint256"
        },
        {
          "internalType": "bytes",
          "name": "data",
          "type": "bytes"
        }
      ],
      "name": "safeTransferFrom",
      "outputs": [],
      "stateMutability": "nonpayable",
      "type": "function"
    },
    {
      "inputs": [
        {
          "internalType": "address",
          "name": "operator",
          "type": "address"
        },
        {
          "internalType": "bool",
          "name": "approved",
          "type": "bool"
        }
      ],
      "name": "setApprovalForAll",
      "outputs": [],
      "stateMutability": "nonpayable",
      "type": "function"
    },
    {
      "inputs": [
        {
          "internalType": "bytes4",
          "name": "interfaceId",
          "type": "bytes4"
        }
      ],
      "name": "supportsInterface",
      "outputs": [
        {
          "internalType": "bool",
          "name": "",
          "type": "bool"
        }
      ],
      "stateMutability": "view",
      "type": "function"
    },
    {
      "inputs": [],
      "name": "symbol",
      "outputs": [
        {
          "internalType": "string",
          "name": "",
          "type": "string"
        }
      ],
      "stateMutability": "view",
      "type": "function"
    },
    {
      "inputs": [
        {
          "internalType": "uint256",
          "name": "tokenId",
          "type": "uint256"
        }
      ],
      "name": "tokenURI",
      "outputs": [
        {
          "internalType": "string",
          "name": "",
          "type": "string"
        }
      ],
      "stateMutability": "view",
      "type": "function"
    },
    {
      "inputs": [
        {
          "internalType": "address",
          "name": "from",
          "type": "address"
        },
        {
          "internalType": "address",
          "name": "to",
          "type": "address"
        },
        {
          "internalType": "uint256",
          "name": "tokenId",
          "type": "uint256"
        }
      ],
      "name": "transferFrom",
      "outputs": [],
      "stateMutability": "nonpayable",
      "type": "function"
    },
    {
      "inputs": [
        {
          "internalType": "address",
          "name": "newOwner",
          "type": "address"
        }
      ],
      "name": "transferOwnership",
      "outputs": [],
      "stateMutability": "nonpayable",
      "type": "function"
    }
  ],
  "bytecode": "0x60806040523480156200001157600080fd5b506040518060400160405280600b81526020017f4865616c74685661756c740000000000000000000000000000000000000000008152506040518060400160405280600981526020017f5355535265636f72640000000000000000000000000000000000000000000000815250816000908051906020019062000096929190620001a6565b508060019080519060200190620000af929190620001a6565b505050620000d2620000c6620000d860201b60201c565b620000e060201b60201c565b620002bb565b600033905090565b6000600760009054906101000a900473ffffffffffffffffffffffffffffffffffffffff16905081600760006101000a81548173ffffffffffffffffffffffffffffffffffffffff021916908373ffffffffffffffffffffffffffffffffffffffff1602179055508173ffffffffffffffffffffffffffffffffffffffff168173ffffffffffffffffffffffffffffffffffffffff167f8be0079c531659141344cd1fd0a4f28419497f9722a3daafe3b4186f6b6457e060405160405180910390a35050565b828054620001b49062000256565b90600052602060002090601f016020900481019282620001d8576000855562000224565b82601f10620001f357805160ff191683800117855562000224565b8280016001018555821562000224579182015b828111156200022357825182559160200191906001019062000206565b5b50905062000233919062000237565b5090565b5b808211156200025257600081600090555060010162000238565b5090565b600060028204905060018216806200026f57607f821691505b602082108114156200028657620002856200028c565b5b50919050565b7f4e487b7100000000000000000000000000000000000000000000000000000000600052602260045260246000fd5b6130a880620002cb6000396000f3fe608060405234801561001057600080fd5b50600436106101165760003560e01c8063740ea8ab116100a2578063b88d4fde11610071578063b88d4fde146102b9578063c87b56dd146102d5578063e985e9c514610305578063eacabe1414610335578063f2fde38b1461036557610116565b8063740ea8ab146102575780638da5cb5b1461026157806395d89b411461027f578063a22cb4651461029d57610116565b806323b872dd116100e957806323b872dd146101b557806342842e0e146101d15780636352211e146101ed57806370a082311461021d578063715018a61461024d57610116565b806301ffc9a71461011b57806306fdde031461014b578063081812fc14610169578063095ea7b314610199575b600080fd5b6101356004803603810190610130919061239f565b610381565b604051610142919061275f565b60405180910390f35b610153610463565b604051610160919061277a565b60405180910390f35b610183600480360381019061017e91906123f1565b6104f5565b60405161019091906126f8565b60405180910390f35b6101b360048036038101906101ae9190612363565b61053b565b005b6101cf60048036038101906101ca9190612209565b610653565b005b6101eb60048036038101906101e69190612209565b6106b3565b005b610207600480360381019061020291906123f1565b6106d3565b60405161021491906126f8565b60405180910390f35b610237600480360381019061023291906121a4565b61075a565b604051610244919061295c565b60405180910390f35b610255610812565b005b61025f610826565b005b61026961083b565b60405161027691906126f8565b60405180910390f35b610287610865565b604051610294919061277a565b60405180910390f35b6102b760048036038101906102b291906122d3565b6108f7565b005b6102d360048036038101906102ce9190612258565b61090d565b005b6102ef60048036038101906102ea91906123f1565b61096f565b6040516102fc919061277a565b60405180910390f35b61031f600480360381019061031a91906121cd565b610a82565b60405161032c919061275f565b60405180910390f35b61034f600480360381019061034a919061230f565b610b16565b60405161035c919061295c565b60405180910390f35b61037f600480360381019061037a91906121a4565b610b5d565b005b60007f80ac58cd000000000000000000000000000000000000000000000000000000007bffffffffffffffffffffffffffffffffffffffffffffffffffffffff1916827bffffffffffffffffffffffffffffffffffffffffffffffffffffffff1916148061044c57507f5b5e139f000000000000000000000000000000000000000000000000000000007bffffffffffffffffffffffffffffffffffffffffffffffffffffffff1916827bffffffffffffffffffffffffffffffffffffffffffffffffffffffff1916145b8061045c575061045b82610be1565b5b9050919050565b60606000805461047290612b81565b80601f016020809104026020016040519081016040528092919081815260200182805461049e90612b81565b80156104eb5780601f106104c0576101008083540402835291602001916104eb565b820191906000526020600020905b8154815290600101906020018083116104ce57829003601f168201915b5050505050905090565b600061050082610c4b565b6004600083815260200190815260200160002060009054906101000a900473ffffffffffffffffffffffffffffffffffffffff169050919050565b6000610546826106d3565b90508073ffffffffffffffffffffffffffffffffffffffff168373ffffffffffffffffffffffffffffffffffffffff1614156105b7576040517f08c379a00000000000000000000000000000000000000000000000000000000081526004016105ae9061291c565b60405180910390fd5b8073ffffffffffffffffffffffffffffffffffffffff166105d6610c96565b73ffffffffffffffffffffffffffffffffffffffff1614806106055750610604816105ff610c96565b610a82565b5b610644576040517f08c379a000000000000000000000000000000000000000000000000000000000815260040161063b9061293c565b60405180910390fd5b61064e8383610c9e565b505050565b61066461065e610c96565b82610d57565b6106a3576040517f08c379a000000000000000000000000000000000000000000000000000000000815260040161069a9061279c565b60405180910390fd5b6106ae838383610dec565b505050565b6106ce8383836040518060200160405280600081525061090d565b505050565b6000806106df836110e6565b9050600073ffffffffffffffffffffffffffffffffffffffff168173ffffffffffffffffffffffffffffffffffffffff161415610751576040517f08c379a0000000000000000000000000000000000000000000000000000000008152600401610748906128fc565b60405180910390fd5b80915050919050565b60008073ffffffffffffffffffffffffffffffffffffffff168273ffffffffffffffffffffffffffffffffffffffff1614156107cb576040517f08c379a00000000000000000000000000000000000000000000000000000000081526004016107c29061287c565b60405180910390fd5b600360008373ffffffffffffffffffffffffffffffffffffffff1673ffffffffffffffffffffffffffffffffffffffff168152602001908152602001600020549050919050565b61081a611123565b61082460006111a1565b565b61082e611123565b610839600954611267565b565b6000600760009054906101000a900473ffffffffffffffffffffffffffffffffffffffff16905090565b60606001805461087490612b81565b80601f01602080910402602001604051908101604052809291908181526020018280546108a090612b81565b80156108ed5780601f106108c2576101008083540402835291602001916108ed565b820191906000526020600020905b8154815290600101906020018083116108d057829003601f168201915b5050505050905090565b610909610902610c96565b83836112ba565b5050565b61091e610918610c96565b83610d57565b61095d576040517f08c379a00000000000000000000000000000000000000000000000000000000081526004016109549061279c565b60405180910390fd5b61096984848484611427565b50505050565b606061097a82610c4b565b600060066000848152602001908152602001600020805461099a90612b81565b80601f01602080910402602001604051908101604052809291908181526020018280546109c690612b81565b8015610a135780601f106109e857610100808354040283529160200191610a13565b820191906000526020600020905b8154815290600101906020018083116109f657829003601f168201915b505050505090506000610a24611483565b9050600081511415610a3a578192505050610a7d565b600082511115610a6f578082604051602001610a579291906126d4565b60405160208183030381529060405292505050610a7d565b610a788461149a565b925050505b919050565b6000600560008473ffffffffffffffffffffffffffffffffffffffff1673ffffffffffffffffffffffffffffffffffffffff16815260200190815260200160002060008373ffffffffffffffffffffffffffffffffffffffff1673ffffffffffffffffffffffffffffffffffffffff16815260200190815260200160002060009054906101000a900460ff16905092915050565b6000610b20611123565b610b2a6008611502565b6000610b366008611518565b905080600981905550610b498482611526565b610b538184611744565b8091505092915050565b610b65611123565b600073ffffffffffffffffffffffffffffffffffffffff168173ffffffffffffffffffffffffffffffffffffffff161415610bd5576040517f08c379a0000000000000000000000000000000000000000000000000000000008152600401610bcc906127dc565b60405180910390fd5b610bde816111a1565b50565b60007f01ffc9a7000000000000000000000000000000000000000000000000000000007bffffffffffffffffffffffffffffffffffffffffffffffffffffffff1916827bffffffffffffffffffffffffffffffffffffffffffffffffffffffff1916149050919050565b610c54816117b8565b610c93576040517f08c379a0000000000000000000000000000000000000000000000000000000008152600401610c8a906128fc565b60405180910390fd5b50565b600033905090565b816004600083815260200190815260200160002060006101000a81548173ffffffffffffffffffffffffffffffffffffffff021916908373ffffffffffffffffffffffffffffffffffffffff160217905550808273ffffffffffffffffffffffffffffffffffffffff16610d11836106d3565b73ffffffffffffffffffffffffffffffffffffffff167f8c5be1e5ebec7d5bd14f71427d1e84f3dd0314c0f7b2291e5b200ac8c7c3b92560405160405180910390a45050565b600080610d63836106d3565b90508073ffffffffffffffffffffffffffffffffffffffff168473ffffffffffffffffffffffffffffffffffffffff161480610da55750610da48185610a82565b5b80610de357508373ffffffffffffffffffffffffffffffffffffffff16610dcb846104f5565b73ffffffffffffffffffffffffffffffffffffffff16145b91505092915050565b8273ffffffffffffffffffffffffffffffffffffffff16610e0c826106d3565b73ffffffffffffffffffffffffffffffffffffffff1614610e62576040517f08c379a0000000000000000000000000000000000000000000000000000000008152600401610e59906127fc565b60405180910390fd5b600073ffffffffffffffffffffffffffffffffffffffff168273ffffffffffffffffffffffffffffffffffffffff161415610ed2576040517f08c379a0000000000000000000000000000000000000000000000000000000008152600401610ec99061283c565b60405180910390fd5b610edf83838360016117f9565b8273ffffffffffffffffffffffffffffffffffffffff16610eff826106d3565b73ffffffffffffffffffffffffffffffffffffffff1614610f55576040517f08c379a0000000000000000000000000000000000000000000000000000000008152600401610f4c906127fc565b60405180910390fd5b6004600082815260200190815260200160002060006101000a81549073ffffffffffffffffffffffffffffffffffffffff02191690556001600360008573ffffffffffffffffffffffffffffffffffffffff1673ffffffffffffffffffffffffffffffffffffffff168152602001908152602001600020600082825403925050819055506001600360008473ffffffffffffffffffffffffffffffffffffffff1673ffffffffffffffffffffffffffffffffffffffff16815260200190815260200160002060008282540192505081905550816002600083815260200190815260200160002060006101000a81548173ffffffffffffffffffffffffffffffffffffffff021916908373ffffffffffffffffffffffffffffffffffffffff160217905550808273ffffffffffffffffffffffffffffffffffffffff168473ffffffffffffffffffffffffffffffffffffffff167fddf252ad1be2c89b69c2b068fc378daa952ba7f163c4a11628f55a4df523b3ef60405160405180910390a46110e1838383600161191f565b505050565b60006002600083815260200190815260200160002060009054906101000a900473ffffffffffffffffffffffffffffffffffffffff169050919050565b61112b610c96565b73ffffffffffffffffffffffffffffffffffffffff1661114961083b565b73ffffffffffffffffffffffffffffffffffffffff161461119f576040517f08c379a0000000000000000000000000000000000000000000000000000000008152600401611196906128dc565b60405180910390fd5b565b6000600760009054906101000a900473ffffffffffffffffffffffffffffffffffffffff16905081600760006101000a81548173ffffffffffffffffffffffffffffffffffffffff021916908373ffffffffffffffffffffffffffffffffffffffff1602179055508173ffffffffffffffffffffffffffffffffffffffff168173ffffffffffffffffffffffffffffffffffffffff167f8be0079c531659141344cd1fd0a4f28419497f9722a3daafe3b4186f6b6457e060405160405180910390a35050565b61127081611925565b600060066000838152602001908152602001600020805461129090612b81565b9050146112b7576006600082815260200190815260200160002060006112b69190611f88565b5b50565b8173ffffffffffffffffffffffffffffffffffffffff168373ffffffffffffffffffffffffffffffffffffffff161415611329576040517f08c379a00000000000000000000000000000000000000000000000000000000081526004016113209061285c565b60405180910390fd5b80600560008573ffffffffffffffffffffffffffffffffffffffff1673ffffffffffffffffffffffffffffffffffffffff16815260200190815260200160002060008473ffffffffffffffffffffffffffffffffffffffff1673ffffffffffffffffffffffffffffffffffffffff16815260200190815260200160002060006101000a81548160ff0219169083151502179055508173ffffffffffffffffffffffffffffffffffffffff168373ffffffffffffffffffffffffffffffffffffffff167f17307eab39ab6107e8899845ad3d59bd9653f200f220920489ca2b5937696c318360405161141a919061275f565b60405180910390a3505050565b611432848484610dec565b61143e84848484611a73565b61147d576040517f08c379a0000000000000000000000000000000000000000000000000000000008152600401611474906127bc565b60405180910390fd5b50505050565b606060405180602001604052806000815250905090565b60606114a582610c4b565b60006114af611483565b905060008151116114cf57604051806020016040528060008152506114fa565b806114d984611c0a565b6040516020016114ea9291906126d4565b6040516020818303038152906040525b915050919050565b6001816000016000828254019250508190555050565b600081600001549050919050565b600073ffffffffffffffffffffffffffffffffffffffff168273ffffffffffffffffffffffffffffffffffffffff161415611596576040517f08c379a000000000000000000000000000000000000000000000000000000000815260040161158d906128bc565b60405180910390fd5b61159f816117b8565b156115df576040517f08c379a00000000000000000000000000000000000000000000000000000000081526004016115d69061281c565b60405180910390fd5b6115ed6000838360016117f9565b6115f6816117b8565b15611636576040517f08c379a000000000000000000000000000000000000000000000000000000000815260040161162d9061281c565b60405180910390fd5b6001600360008473ffffffffffffffffffffffffffffffffffffffff1673ffffffffffffffffffffffffffffffffffffffff16815260200190815260200160002060008282540192505081905550816002600083815260200190815260200160002060006101000a81548173ffffffffffffffffffffffffffffffffffffffff021916908373ffffffffffffffffffffffffffffffffffffffff160217905550808273ffffffffffffffffffffffffffffffffffffffff16600073ffffffffffffffffffffffffffffffffffffffff167fddf252ad1be2c89b69c2b068fc378daa952ba7f163c4a11628f55a4df523b3ef60405160405180910390a461174060008383600161191f565b5050565b61174d826117b8565b61178c576040517f08c379a00000000000000000000000000000000000000000000000000000000081526004016117839061289c565b60405180910390fd5b806006600084815260200190815260200160002090805190602001906117b3929190611fc8565b505050565b60008073ffffffffffffffffffffffffffffffffffffffff166117da836110e6565b73ffffffffffffffffffffffffffffffffffffffff1614159050919050565b600181111561191957600073ffffffffffffffffffffffffffffffffffffffff168473ffffffffffffffffffffffffffffffffffffffff161461188d5780600360008673ffffffffffffffffffffffffffffffffffffffff1673ffffffffffffffffffffffffffffffffffffffff16815260200190815260200160002060008282546118859190612a97565b925050819055505b600073ffffffffffffffffffffffffffffffffffffffff168373ffffffffffffffffffffffffffffffffffffffff16146119185780600360008573ffffffffffffffffffffffffffffffffffffffff1673ffffffffffffffffffffffffffffffffffffffff16815260200190815260200160002060008282546119109190612a41565b925050819055505b5b50505050565b50505050565b6000611930826106d3565b90506119408160008460016117f9565b611949826106d3565b90506004600083815260200190815260200160002060006101000a81549073ffffffffffffffffffffffffffffffffffffffff02191690556001600360008373ffffffffffffffffffffffffffffffffffffffff1673ffffffffffffffffffffffffffffffffffffffff168152602001908152602001600020600082825403925050819055506002600083815260200190815260200160002060006101000a81549073ffffffffffffffffffffffffffffffffffffffff021916905581600073ffffffffffffffffffffffffffffffffffffffff168273ffffffffffffffffffffffffffffffffffffffff167fddf252ad1be2c89b69c2b068fc378daa952ba7f163c4a11628f55a4df523b3ef60405160405180910390a4611a6f81600084600161191f565b5050565b6000611a948473ffffffffffffffffffffffffffffffffffffffff16611d2e565b15611bfd578373ffffffffffffffffffffffffffffffffffffffff1663150b7a02611abd610c96565b8786866040518563ffffffff1660e01b8152600401611adf9493929190612713565b602060405180830381600087803b158015611af957600080fd5b505af1925050508015611b2a57506040513d601f19601f82011682018060405250810190611b2791906123c8565b60015b611bad573d8060008114611b5a576040519150601f19603f3d011682016040523d82523d6000602084013e611b5f565b606091505b50600081511415611ba5576040517f08c379a0000000000000000000000000000000000000000000000000000000008152600401611b9c906127bc565b60405180910390fd5b805181602001fd5b63150b7a0260e01b7bffffffffffffffffffffffffffffffffffffffffffffffffffffffff1916817bffffffffffffffffffffffffffffffffffffffffffffffffffffffff191614915050611c02565b600190505b949350505050565b606060006001611c1984611d51565b01905060008167ffffffffffffffff811115611c5e577f4e487b7100000000000000000000000000000000000000000000000000000000600052604160045260246000fd5b6040519080825280601f01601f191660200182016040528015611c905781602001600182028036833780820191505090505b509050600082602001820190505b600115611d23578080600190039150507f3031323334353637383961626364656600000000000000000000000000000000600a86061a8153600a8581611d0d577f4e487b7100000000000000000000000000000000000000000000000000000000600052601260045260246000fd5b0494506000851415611d1e57611d23565b611c9e565b819350505050919050565b6000808273ffffffffffffffffffffffffffffffffffffffff163b119050919050565b600080600090507a184f03e93ff9f4daa797ed6e38ed64bf6a1f0100000000000000008310611dd5577a184f03e93ff9f4daa797ed6e38ed64bf6a1f0100000000000000008381611dcb577f4e487b7100000000000000000000000000000000000000000000000000000000600052601260045260246000fd5b0492506040810190505b6d04ee2d6d415b85acef81000000008310611e38576d04ee2d6d415b85acef81000000008381611e2e577f4e487b7100000000000000000000000000000000000000000000000000000000600052601260045260246000fd5b0492506020810190505b662386f26fc100008310611e8d57662386f26fc100008381611e83577f4e487b7100000000000000000000000000000000000000000000000000000000600052601260045260246000fd5b0492506010810190505b6305f5e1008310611edc576305f5e1008381611ed2577f4e487b7100000000000000000000000000000000000000000000000000000000600052601260045260246000fd5b0492506008810190505b6127108310611f27576127108381611f1d577f4e487b7100000000000000000000000000000000000000000000000000000000600052601260045260246000fd5b0492506004810190505b60648310611f705760648381611f66577f4e487b7100000000000000000000000000000000000000000000000000000000600052601260045260246000fd5b0492506002810190505b600a8310611f7f576001810190505b80915050919050565b508054611f9490612b81565b6000825580601f10611fa65750611fc5565b601f016020900490600052602060002090810190611fc4919061204e565b5b50565b828054611fd490612b81565b90600052602060002090601f016020900481019282611ff6576000855561203d565b82601f1061200f57805160ff191683800117855561203d565b8280016001018555821561203d579182015b8281111561203c578251825591602001919060010190612021565b5b50905061204a919061204e565b5090565b5b8082111561206757600081600090555060010161204f565b5090565b600061207e6120798461299c565b612977565b90508281526020810184848401111561209657600080fd5b6120a1848285612b3f565b509392505050565b60006120bc6120b7846129cd565b612977565b9050828152602081018484840111156120d457600080fd5b6120df848285612b3f565b509392505050565b6000813590506120f681613016565b92915050565b60008135905061210b8161302d565b92915050565b60008135905061212081613044565b92915050565b60008151905061213581613044565b92915050565b600082601f83011261214c57600080fd5b813561215c84826020860161206b565b91505092915050565b600082601f83011261217657600080fd5b81356121868482602086016120a9565b91505092915050565b60008135905061219e8161305b565b92915050565b6000602082840312156121b657600080fd5b60006121c4848285016120e7565b91505092915050565b600080604083850312156121e057600080fd5b60006121ee858286016120e7565b92505060206121ff858286016120e7565b9150509250929050565b60008060006060848603121561221e57600080fd5b600061222c868287016120e7565b935050602061223d868287016120e7565b925050604061224e8682870161218f565b9150509250925092565b6000806000806080858703121561226e57600080fd5b600061227c878288016120e7565b945050602061228d878288016120e7565b935050604061229e8782880161218f565b925050606085013567ffffffffffffffff8111156122bb57600080fd5b6122c78782880161213b565b91505092959194509250565b600080604083850312156122e657600080fd5b60006122f4858286016120e7565b9250506020612305858286016120fc565b9150509250929050565b6000806040838503121561232257600080fd5b6000612330858286016120e7565b925050602083013567ffffffffffffffff81111561234d57600080fd5b61235985828601612165565b9150509250929050565b6000806040838503121561237657600080fd5b6000612384858286016120e7565b92505060206123958582860161218f565b9150509250929050565b6000602082840312156123b157600080fd5b60006123bf84828501612111565b91505092915050565b6000602082840312156123da57600080fd5b60006123e884828501612126565b91505092915050565b60006020828403121561240357600080fd5b60006124118482850161218f565b91505092915050565b61242381612acb565b82525050565b61243281612add565b82525050565b6000612443826129fe565b61244d8185612a14565b935061245d818560208601612b4e565b61246681612c71565b840191505092915050565b600061247c82612a09565b6124868185612a25565b9350612496818560208601612b4e565b61249f81612c71565b840191505092915050565b60006124b582612a09565b6124bf8185612a36565b93506124cf818560208601612b4e565b80840191505092915050565b60006124e8602d83612a25565b91506124f382612c82565b604082019050919050565b600061250b603283612a25565b915061251682612cd1565b604082019050919050565b600061252e602683612a25565b915061253982612d20565b604082019050919050565b6000612551602583612a25565b915061255c82612d6f565b604082019050919050565b6000612574601c83612a25565b915061257f82612dbe565b602082019050919050565b6000612597602483612a25565b91506125a282612de7565b604082019050919050565b60006125ba601983612a25565b91506125c582612e36565b602082019050919050565b60006125dd602983612a25565b91506125e882612e5f565b604082019050919050565b6000612600602e83612a25565b915061260b82612eae565b604082019050919050565b6000612623602083612a25565b915061262e82612efd565b602082019050919050565b6000612646602083612a25565b915061265182612f26565b602082019050919050565b6000612669601883612a25565b915061267482612f4f565b602082019050919050565b600061268c602183612a25565b915061269782612f78565b604082019050919050565b60006126af603d83612a25565b91506126ba82612fc7565b604082019050919050565b6126ce81612b35565b82525050565b60006126e082856124aa565b91506126ec82846124aa565b91508190509392505050565b600060208201905061270d600083018461241a565b92915050565b6000608082019050612728600083018761241a565b612735602083018661241a565b61274260408301856126c5565b81810360608301526127548184612438565b905095945050505050565b60006020820190506127746000830184612429565b92915050565b600060208201905081810360008301526127948184612471565b905092915050565b600060208201905081810360008301526127b5816124db565b9050919050565b600060208201905081810360008301526127d5816124fe565b9050919050565b600060208201905081810360008301526127f581612521565b9050919050565b6000602082019050818103600083015261281581612544565b9050919050565b6000602082019050818103600083015261283581612567565b9050919050565b600060208201905081810360008301526128558161258a565b9050919050565b60006020820190508181036000830152612875816125ad565b9050919050565b60006020820190508181036000830152612895816125d0565b9050919050565b600060208201905081810360008301526128b5816125f3565b9050919050565b600060208201905081810360008301526128d581612616565b9050919050565b600060208201905081810360008301526128f581612639565b9050919050565b600060208201905081810360008301526129158161265c565b9050919050565b600060208201905081810360008301526129358161267f565b9050919050565b60006020820190508181036000830152612955816126a2565b9050919050565b600060208201905061297160008301846126c5565b92915050565b6000612981612992565b905061298d8282612bb3565b919050565b6000604051905090565b600067ffffffffffffffff8211156129b7576129b6612c42565b5b6129c082612c71565b9050602081019050919050565b600067ffffffffffffffff8211156129e8576129e7612c42565b5b6129f182612c71565b9050602081019050919050565b600081519050919050565b600081519050919050565b600082825260208201905092915050565b600082825260208201905092915050565b600081905092915050565b6000612a4c82612b35565b9150612a5783612b35565b9250827fffffffffffffffffffffffffffffffffffffffffffffffffffffffffffffffff03821115612a8c57612a8b612be4565b5b828201905092915050565b6000612aa282612b35565b9150612aad83612b35565b925082821015612ac057612abf612be4565b5b828203905092915050565b6000612ad682612b15565b9050919050565b60008115159050919050565b60007fffffffff0000000000000000000000000000000000000000000000000000000082169050919050565b600073ffffffffffffffffffffffffffffffffffffffff82169050919050565b6000819050919050565b82818337600083830152505050565b60005b83811015612b6c578082015181840152602081019050612b51565b83811115612b7b576000848401525b50505050565b60006002820490506001821680612b9957607f821691505b60208210811415612bad57612bac612c13565b5b50919050565b612bbc82612c71565b810181811067ffffffffffffffff82111715612bdb57612bda612c42565b5b80604052505050565b7f4e487b7100000000000000000000000000000000000000000000000000000000600052601160045260246000fd5b7f4e487b7100000000000000000000000000000000000000000000000000000000600052602260045260246000fd5b7f4e487b7100000000000000000000000000000000000000000000000000000000600052604160045260246000fd5b6000601f19601f8301169050919050565b7f4552433732313a2063616c6c6572206973206e6f7420746f6b656e206f776e6560008201527f72206f7220617070726f76656400000000000000000000000000000000000000602082015250565b7f4552433732313a207472616e7366657220746f206e6f6e20455243373231526560008201527f63656976657220696d706c656d656e7465720000000000000000000000000000602082015250565b7f4f776e61626c653a206e6577206f776e657220697320746865207a65726f206160008201527f6464726573730000000000000000000000000000000000000000000000000000602082015250565b7f4552433732313a207472616e736665722066726f6d20696e636f72726563742060008201527f6f776e6572000000000000000000000000000000000000000000000000000000602082015250565b7f4552433732313a20746f6b656e20616c7265616479206d696e74656400000000600082015250565b7f4552433732313a207472616e7366657220746f20746865207a65726f2061646460008201527f7265737300000000000000000000000000000000000000000000000000000000602082015250565b7f4552433732313a20617070726f766520746f2063616c6c657200000000000000600082015250565b7f4552433732313a2061646472657373207a65726f206973206e6f74206120766160008201527f6c6964206f776e65720000000000000000000000000000000000000000000000602082015250565b7f45524337323155524953746f726167653a2055524920736574206f66206e6f6e60008201527f6578697374656e7420746f6b656e000000000000000000000000000000000000602082015250565b7f4552433732313a206d696e7420746f20746865207a65726f2061646472657373600082015250565b7f4f776e61626c653a2063616c6c6572206973206e6f7420746865206f776e6572600082015250565b7f4552433732313a20696e76616c696420746f6b656e2049440000000000000000600082015250565b7f4552433732313a20617070726f76616c20746f2063757272656e74206f776e6560008201527f7200000000000000000000000000000000000000000000000000000000000000602082015250565b7f4552433732313a20617070726f76652063616c6c6572206973206e6f7420746f60008201527f6b656e206f776e6572206f7220617070726f76656420666f7220616c6c000000602082015250565b61301f81612acb565b811461302a57600080fd5b50565b61303681612add565b811461304157600080fd5b50565b61304d81612ae9565b811461305857600080fd5b50565b61306481612b35565b811461306f57600080fd5b5056fea26469706673582212206dfdb41ac3374dcd2c39df045b8a7e96834d78b22d1b2f8e65878e89849026d464736f6c63430008010033",
  "linkReferences": {},
  "deployedLinkReferences": {}
}